:02000000012BD2
:10000600831203132230FC00F801F901FA01FB0107
:10001600FC03031939280310FB0CFA0CF90CF80C35
:10002600F30CF20CF10CF00C031C0B28FC03031967
:100036002B287408F80775080318750FF907760852
:100046000318760FFA0777080318770FFB070F28B0
:100056007408F80775080318750FF907760803186A
:0E006600760FFA0777080318770FFB070800DC
:1000740083120313FB01FA01F901F801A001730DC6
:10008400F80D7408F8027508031C750FF902760858
:10009400031C760FFA027708031C770FFB0200019A
:1000A400031C0130A002F30D0730FC00730DF80DA2
:1000B400F90DFA0DFB0DA00D7408731C7328F802DA
:1000C4007508031C750FF9027608031C760FFA02F3
:1000D4007708031C770FFB020001031C0130A00208
:1000E4008428F80775080318750FF90776080318AC
:1000F400760FFA0777080318770FFB070001031838
:100104000130A007F30DFC0B5828720DF80DF90D02
:10011400FA0DFB0DA00D7408731CA228F8027508D3
:10012400031C750FF9027608031C760FFA02770890
:10013400031C770FFB020001031C0130A002B3284B
:10014400F80775080318750FF90776080318760F72
:10015400FA0777080318770FFB070001031801302B
:10016400A007F20D0730FC00720DF80DF90DFA0D21
:10017400FB0DA00D7408721CD128F8027508031C2D
:10018400750FF9027608031C760FFA027708031C30
:10019400770FFB020001031C0130A002E228F807DC
:1001A40075080318750FF90776080318760FFA0710
:1001B40077080318770FFB07000103180130A00725
:1001C400F20DFC0BB628710DF80DF90DFA0DFB0DAF
:1001D400A00D7408721C0029F8027508031C750F21
:1001E400F9027608031C760FFA027708031C770FCE
:1001F400FB020001031C0130A0021129F807750855
:100204000318750FF90776080318760FFA077708AD
:100214000318770FFB07000103180130A007F10D45
:100224000730FC00710DF80DF90DFA0DFB0DA00D52
:100234007408711C2F29F8027508031C750FF90244
:100244007608031C760FFA027708031C770FFB026B
:100254000001031C0130A0024029F80775080318A7
:10026400750FF90776080318760FFA07770803184D
:10027400770FFB07000103180130A007F10DFC0BF9
:100284001429700DF80DF90DFA0DFB0DA00D74086D
:10029400711C5E29F8027508031C750FF9027608B3
:1002A400031C760FFA027708031C770FFB02000188
:1002B400031C0130A0026F29F80775080318750F95
:1002C400F90776080318760FFA0777080318770FEB
:1002D400FB07000103180130A007F00D0730FC00F4
:1002E400700DF80DF90DFA0DFB0DA00D7408701CBE
:1002F4008D29F8027508031C750FF9027608031C92
:10030400760FFA027708031C770FFB020001031C27
:100314000130A0029E29F80775080318750FF90724
:1003240076080318760FFA0777080318770FFB0788
:10033400000103180130A007F00DFC0B722970189E
:10034400B1297408F80775080318750FF9077608BA
:100354000318760FFA0777080318770FFB070800CE
:1003640083120313F101F2012F087202031DBC2949
:100374002E0871020318C3290000F10A0319F20AB6
:04038400B62908008E
:1003880083120313F101033071020318E7290814DB
:100398000230FB008630FC009930FD00FD0BD229AD
:1003A800FC0BD229FB0BD22908100230FB00863047
:1003B800FC009930FD00FD0BDF29FC0BDF29FB0B4E
:0803C800DF29F10AC729080032
:1003D00083120313F1010230710203180A2A081470
:1003E0008230FC00DD30FD00FD0BF429FC0BF4290C
:1003F0000000000008100230FB000430FC00BA309E
:10040000FD00FD0B012AFC0B012AFB0B012A000059
:06041000F10AEB290800CF
:10041600831203132508F000F101F201F301F43011
:10042600F4000130F5000030F6000030F70003203C
:100436002308F4002408F500F601F7013A207008B5
:10044600A6007108A7007208A8007308A900AA01EF
:10045600AB01AC01AD0129082D02031D3C2A280879
:100466002C02031D3C2A27082B02031D3C2A2608C2
:100476002A020318622A08142308AE002408AF00D3
:10048600B22108102308AE002408AF00B2212A08C2
:10049600F0002B08F1002C08F2002D08F300F00AFA
:1004A6000319F10A0319F20A0319F30A7008AA00DC
:1004B6007108AB007208AC007308AD002E2A080064
:0404C600C421080045
:0404CA00E82108001D
:1004CE00F63083120313A3000330A400C830A50036
:1004DE000B22BC30A3000330A400C830A5000B22B1
:1004EE00A430A3000630A400C830A5000B22EF30C4
:1004FE00A3000530A400C830A5000B229830A3003D
:10050E000530A400C830A5000B22FB30A300043038
:10051E00A400C830A5000B227030A3000430A40044
:10052E00C830A5000B22F630A3000330A400903093
:10053E00A5000B220230FB000430FC00BA30FD0097
:10054E00FD0BA72AFC0BA72AFB0BA72A0000703075
:10055E00A3000430A4009630A5000B22FB30A300AC
:10056E000430A4009630A5000B229830A30005306D
:10057E00A4009630A5000B22EF30A3000530A40096
:10058E009630A5000B22A430A3000630A4009630AE
:10059E00A5000B227B30A3000730A4002C30A50051
:1005AE000B220330FB000830FC007730FD00FD0B02
:1005BE00DE2AFC0BDE2AFB0BDE2A7B30A300073083
:1005CE00A4006430A5000B22EF30A3000530A40078
:1005DE006430A5000B22FB30A3000430A40064306D
:1005EE00A5000B22BC30A3000330A4009030A50060
:0405FE000B220800C4
:100602008316031308108814081583120810880132
:100612000630FB001330FC00AD30FD00FD0B0F2B4C
:10062200FC0B0F2BFB0B0F2B0000000067220B3083
:10063200FB002630FC005D30FD00FD0B1E2BFC0B89
:100642001E2BFB0B1E2B00000000881C362B652284
:10065200881C2C2B292B8230FC00DD30FD00FD0B89
:10066200302BFC0B302B00000000081D462B6322B0
:10067200081D3C2B392B8230FC00DD30FD00FD0BC8
:10068200402BFC0B402B000000001A30FC00F8301D
:10069200FD00FD0B4A2BFC0B4A2B0000262B502B96
:04400E00F22F000786
:00000001FF
